:100000000C9434000C9451000C9451000C94510049
:100010000C9451000C9451000C9451000C9451001C
:100020000C9451000C9451000C9451000C9451000C
:100030000C9451000C9451000C9451000C945100FC
:100040000C9451000C9451000C9451000C945100EC
:100050000C9451000C9451000C9451000C945100DC
:100060000C9451000C94510011241FBECFEFD8E026
:10007000DEBFCDBF11E0A0E0B1E0E6E5FBE002C0ED
:1000800005900D92A235B107D9F721E0A2E5B1E0C4
:1000900001C01D92AB35B207E1F70E948F030C94AB
:1000A000A9050C9400009BB19F70282F207F922BF4
:1000B0009BB9589859985A9A35E03A95F1F700004B
:1000C0005A989AE69A95F1F700C02BB12F7030E15B
:1000D000839FC0011124822B8BB95A9A85E08A959F
:1000E000F1F700005A9808958FEF8AB95A988FE374
:1000F0009FE10197F1F700C0000083E30E945300E5
:100100008FE891E00197F1F700C0000082E30E94C0
:1001100053008FE891E00197F1F700C0000088E2FA
:100120000E9453008FE891E00197F1F700C00000B2
:100130008CE00E9453008FE891E00197F1F700C036
:10014000000081E00E9453008FE39FE10197F1F7E7
:1001500000C0000086E00E9453008FE891E0019704
:10016000F1F700C0000008959BB19F70282F207FF9
:10017000922B9BB9589A59985A9A35E03A95F1F7CB
:1001800000005A982BB12F7030E1839FC0011124D9
:10019000822B8BB9589A59985A9A85E08A95F1F72B
:1001A00000005A988FE891E00197F1F700C0000035
:1001B00008950F931F93CF93DF9300D000D0CDB756
:1001C000DEB70091010110910201209103013091ED
:1001D000040109831A832B833C83FE01E60FF11D82
:1001E00081509081890F0E9453008FE891E0019720
:1001F000F1F700C000000F900F900F900F90DF916B
:10020000CF911F910F9108950F931F93CF938C015E
:10021000C0E0F801EC0FF11D8081882321F00E94DD
:10022000B400CF5FF6CFCF911F910F91089581E079
:100230000E9453008FE39CE90197F1F700C0000092
:100240000895E0EBF0E0808183688083E1EBF0E0EB
:10025000808181608083239A1092B30008951C9955
:1002600019C02FE788E391E0215080409040E1F7EA
:1002700000C000001C9902C01C9BFECF809152015F
:10028000811104C081E080935201089510925201BF
:1002900081E0089580E0089565E670E081E00E94C5
:1002A000DA03BC0180E090E00E94AE042CEE31E560
:1002B00040EA50E40E94140520E030E040E850E4B9
:1002C0000E94140520E030E040E85AE30E94140543
:1002D00020E030E048EC52E40E9414050E947F04C4
:1002E000CB01089565E670E080E00E94DA03BC016E
:1002F00080E090E00E94AE042CEE31E540EA50E44C
:100300000E94140520E030E040E85AE30E94140502
:1003100020E030E048E453E40E9414050E947F048A
:10032000CB01089561E081E00E94D90085E091E071
:100330000E94040161E086E00E94D9008EE20E94E2
:10034000B40061E080E10E94D90085E20E94B4001F
:1003500062E081E00E94D90089E091E00E940401FE
:1003600062E08AE00E94D9008DE091E00E940401E1
:1003700062E08FE00E94D9008EE20C94B4000F93EB
:100380001F93CF93DF93C82FD62F8A010E94D900E5
:10039000C80168EE73E00E9449048C0180E3860F77
:1003A0000E94B400C80164E670E00E9449048C0118
:1003B00080E3860F0E94B4006D2F82E08C0F0E94B4
:1003C000D9008EE20E94B400C8016AE070E00E9489
:1003D000490480E3860FDF91CF911F910F910C9418
:1003E000B400CF9364E60E943D04892F6AE00E9426
:1003F0003D04C92F805D0E94B40080E38C0FCF9133
:100400000C94B400CF93C82F61E08EE00E94D90015
:100410008C2F90E0019644E6489F9001499F300D53
:100420001124832FCF910C94F101CF9329988FE35E
:100430009CE90197F1F700C000000E944C019093E5
:10044000570180935601892BB9F080915601909104
:100450005701019783389340C0F50E94170161E06E
:1004600081E00E94D90081E291E00E940401109293
:1004700000011092530129C00E94170161E081E040
:100480000E94D90081E191E00E9404011092530181
:10049000C1E0809153018111D8CF0E944C0190930B
:1004A0005701809356018FEF99E628E181509040E3
:1004B0002040E1F700C00000809156019091570163
:1004C000892B39F3C0935301E4CF80915601909169
:1004D00057018538934018F081E080935301C09113
:1004E0005301C13009F0E4C00E9417010E9492013B
:1004F000C093540161E089E00E94D90081E391E05A
:100500000E9404018FE38093B300299A80915401E3
:10051000813009F058C00E94720190935A01809373
:1005200059018436910520F48091B3008F5F03C098
:100530008091B30081508093B3000E944C0190934E
:10054000570180935601AC0161E084E00E94BF0135
:100550004091590150915A0162E08DE00E94BF0123
:100560008091B3000E9402028FEF99E628E181504A
:1005700090402040E1F700C0000029988FE39CE9FB
:100580000197F1F700C000000E944C01AC0190936C
:10059000570180935601493D94E0590778F0109235
:1005A000540162E084E00E94BF0161E089E00E94A2
:1005B000D90084E391E00E940401A8CF62E084E0C6
:1005C0000E94BF01A2CF81E08093580161E089E0E1
:1005D0000E94D90087E391E00E940401299A80914A
:1005E0005801813009F064C00E944C01909357017A
:1005F00080935601823E944020F48091B3008F5F37
:1006000003C08091B30081508093B30040915601A4
:100610005091570161E084E00E94BF018091B300D6
:100620000E9402020E94720190935A018093590124
:100630008FEF93ED20E3815090402040E1F700C020
:10064000000029988FE39CE90197F1F700C00000B2
:100650000E944C019093570180935601AC0162E0D7
:1006600084E00E94BF014091590150915A014331E9
:100670005105C8F48091560190915701833E9440F2
:1006800090F00E94170161E081E00E94D9008AE3A6
:1006900091E00E94040110925801109253011092AF
:1006A00000012A9A05C062E08DE00E94BF0196CF4A
:1006B000CF9108950E94170162E081E00E94D90065
:1006C00089E491E00E94040180915201882331F174
:1006D0000E944C019093570180935601AC0161E058
:1006E00084E00E94BF012FEF81EE94E02150804012
:1006F0009040E1F700C000000E942F01882321F301
:100700000E9417010E9492012FEF81EE94E0215088
:1007100080409040E1F700C00000D6CF08951C98BB
:100720002C9A84B1866084B985B1897F85B90E948D
:10073000BE038FE99FE00197F1F700C000000E941F
:1007400021018FE99FE00197F1F700C000000E94AE
:1007500074008FE39CE90197F1F700C000008FE37C
:100760008093B3000E942F0181110E945A0380914F
:1007700000018823B9F30E941502F4CF17B8EAE705
:10078000F0E08081876880830895877080937C0083
:1007900080917A00806480937A0080917A0084FF4F
:1007A000FCCF85E08A95F1F7000080917800909168
:1007B000790008954F925F926F927F928F929F92ED
:1007C000AF92BF92CF92DF92EF92FF920F931F935F
:1007D000CF93DF93CDB7DEB7882E7B01CDB6DEB6E3
:1007E000CB01880F991F2DB73EB7281B390B0FB6C9
:1007F000F8943EBF0FBE2DBF8DB79EB701965C012A
:10080000412C512C3201912C092D10E00E151F05A1
:10081000B0F4882D0E94C503000F111FF501E00FF1
:10082000F11F91838083480E591E611C711C8FE952
:100830009FE00197F1F700C000009394E5CF970186
:1008400040E050E0C301B2010E945D04C9010FB64F
:10085000F894DEBE0FBECDBEDF91CF911F910F91F8
:10086000FF90EF90DF90CF90BF90AF909F908F90D0
:100870007F906F905F904F900895991B79E004C02E
:10088000991F961708F0961B881F7A95C9F78095CF
:100890000895AA1BBB1B51E107C0AA1FBB1FA617C7
:1008A000B70710F0A61BB70B881F991F5A95A9F719
:1008B00080959095BC01CD010895A1E21A2EAA1B46
:1008C000BB1BFD010DC0AA1FBB1FEE1FFF1FA21700
:1008D000B307E407F50720F0A21BB30BE40BF50BFD
:1008E000661F771F881F991F1A9469F76095709586
:1008F000809590959B01AC01BD01CF0108950E94A8
:10090000F30488F09F5798F0B92F9927B751B0F0AA
:10091000E1F0660F771F881F991F1AF0BA95C9F783
:1009200014C0B13091F00E940D05B1E008950C940F
:100930000D05672F782F8827B85F39F0B93FCCF3C2
:10094000869577956795B395D9F73EF49095809500
:10095000709561957F4F8F4F9F4F0895E89409C020
:1009600097FB3EF490958095709561957F4F8F4FE2
:100970009F4F9923A9F0F92F96E9BB279395F695F8
:10098000879577956795B795F111F8CFFAF4BB0F76
:1009900011F460FF1BC06F5F7F4F8F4F9F4F16C0DA
:1009A000882311F096E911C0772321F09EE8872F64
:1009B000762F05C0662371F096E8862F70E060E020
:1009C0002AF09A95660F771F881FDAF7880F969599
:1009D000879597F9089557FD9058440F551F59F082
:1009E0005F3F71F04795880F97FB991F61F09F3F1C
:1009F00079F087950895121613061406551FF2CF45
:100A00004695F1DF08C0161617061806991FF1CF94
:100A100086957105610508940895E894BB276627BB
:100A20007727CB0197F908950E9427050C94980524
:100A30000E948A0538F00E94910520F0952311F05C
:100A40000C9481050C94870511240C940E050E94CA
:100A5000EB0470F3959FC1F3950F50E0551F629F13
:100A6000F001729FBB27F00DB11D639FAA27F00D07
:100A7000B11DAA1F649F6627B00DA11D661F829F2E
:100A80002227B00DA11D621F739FB00DA11D621F13
:100A9000839FA00D611D221F749F3327A00D611D30
:100AA000231F849F600D211D822F762F6A2F112412
:100AB0009F5750409AF0F1F088234AF0EE0FFF1F45
:100AC000BB1F661F771F881F91505040A9F79E3F9C
:100AD000510580F00C9481050C940E055F3FE4F302
:100AE000983ED4F3869577956795B795F795E795F2
:100AF0009F5FC1F7FE2B880F911D9695879597F9FB
:100B0000089597F99F6780E870E060E008959FEF8F
:100B100080EC089500240A94161617061806090694
:100B2000089500240A941216130614060506089563
:100B3000092E0394000C11F4882352F0BB0F40F4EB
:100B4000BF2B11F460FF04C06F5F7F4F8F4F9F4F2B
:060B50000895F894FFCFA8
:100B56000180C094D4566F2D0056622D0049612D38
:100B66000020496E736572742062617474657279CF
:100B760000204661756C74792062617474657279BF
:100B860000434300202000435600436861726765B6
:100B960020636F6D6C6574650063616C206D6F64B6
:020BA6006500E8
:00000001FF
