:100000000C942A000C9447000C9447000C94470071
:100010000C9447000C9447000C9447000C94470044
:100020000C9447000C9447000C9447000C94470034
:100030000C9447000C9447000C9447000C94470024
:100040000C9447000C9447000C9447000C94470014
:100050000C94470011241FBECFE5D4E0DEBFCDBF16
:1000600012E0A0E6B0E0EAEAF3E002C005900D92EB
:10007000AE32B107D9F722E0AEE2B2E001C01D9284
:10008000A033B207E1F70E9449000C94D3010C940D
:100090000000D09AD8980E94B00140E060E080E073
:1000A0000E94A90020E630E040E060E080E00E948D
:1000B000430141E060E080E00E94A90020E630E0DA
:1000C00040E060E080E00E94430142E060E080E0C8
:1000D0000E94A90020E630E040E060E080E00E945D
:1000E000430143E060E080E00E94A90020E630E0A8
:1000F00040E060E080E00E94430144E060E080E096
:100100000E94A90020E630E040E060E080E00E942C
:100110004301D89A2FEF84E39CE021508040904027
:10012000E1F700C00000D8982FEF84E39CE0215055
:1001300080409040E1F700C00000EBCFC3986130F1
:1001400011F4C29A01C0C2988FB9779BFECFC39AAF
:100150000895CF93962FC42F811104C0862F880F46
:10016000980F990F90932E02C0932F02953570F43B
:10017000C63060F460E0892F80680E949E0060E0D5
:100180008C2F80640E949E0080E001C081E0CF91AE
:100190000895CF93DF9340E060E080E00E94A900E3
:1001A000C8EFD1E061E080E00E949E002197D1F786
:1001B000DF91CF910895EF92FF920F931F93CF930A
:1001C000C82F062F603208F40CE5C13021F461E03D
:1001D0008FEF0E949E0085E0089F80011124E12C92
:1001E000F12CF801EE0DFF1DE953F0408081880FDE
:1001F000C11102C061E004C0C13021F461E080950A
:100200000E949E008FEFE81AF80A85E0E816F104D4
:1002100041F7C11103C061E080E004C0C13021F4A6
:1002200061E08FEF0E949E0080E0CF911F910F91BF
:10023000FF90EF900895EF92FF920F931F93CF934B
:10024000DF93D82FF62EE42E8901C1E0F8016191E9
:100250008F01662379F0D23030F0CF1530F081E095
:10026000EC1620F402C08D2F01C080E00E94DB005C
:10027000CF5FECCF8FEF8C0FDF91CF911F910F915C
:10028000FF90EF900895EF92FF920F931F93CF93FB
:10029000DF93D82FF62EE42E8901C1E0F801619199
:1002A0008F01662379F0D23030F0CF1530F081E045
:1002B000EC1620F402C08D2F01C080E00E94DB000C
:1002C000CF5FECCF8FEF8C0FDF91CF911F910F910C
:1002D000FF90EF900895EF92FF920F931F93CF93AB
:1002E000DF93C62FF42EE22E8535E0F46630D0F48D
:1002F000D82FD068FC16A0F060E08D2F0E949E00E1
:1003000060E08C2F80640E949E0010E0101731F096
:1003100061E08E2D0E949E001F5FF8CFCF5FEACF75
:1003200080E001C081E0DF91CF911F910F91FF909C
:10033000EF90089580E00895FC012191CF012111F3
:10034000FBCF80E00895FC012191CF012111FBCF6B
:1003500080E0089587B3806A87BB80E58DB90895F2
:100360000E94AA01C49A87B38C6187BBC498C49ABF
:10037000C39A60E081E20E949E0060E088EC0E94E7
:100380009E0060E086E00E949E0060E083E10E94A3
:100390009E0060E080E20E949E0060E08CE00E948F
:0A03A0009E000C94C900F894FFCFF2
:1003AA0048656C6C6F2100000000000000002F00FF
:1003BA00000007000700147F147F14242A7F2A12E2
:1003CA00C4C81026463649552250000503000000CD
:1003DA001C2241000041221C0014083E081408088F
:1003EA003E08080000503000101010101000606025
:1003FA00000020100804023E5149453E00427F4059
:10040A000042615149462141454B311814127F106F
:10041A0027454545393C4A494930017109050336A2
:10042A0049494936064949291E0036360000005610
:10043A0036000008142241001414141414007F3EDC
:10044A001C080201510906324959513E7E11111107
:10045A007E7F494949363E414141227F4141221C22
:10046A007F494949417F090909013E4149497A7F42
:10047A000808087F00417F41002040413F017F0872
:10048A001422417F404040407F020C027F7F0408D3
:10049A00107F3E4141413E7F090909063E415121F3
:1004AA005E7F09192946464949493101017F0101FF
:1004BA003F4040403F1F2040201F3F4038403F639D
:1004CA001408146307087008076151494543007FFF
:1004DA00414100552A552A550041417F0004020135
:1004EA000204404040404000010204002054545499
:1004FA00787F484444383844444420384444487F48
:10050A003854545418087E0901020C5252523E7F44
:10051A000804047800447D40002040443D007F10D8
:10052A0028440000417F40007C041804787C0804B9
:10053A00047838444444387C1414140808141418F1
:10054A007C7C080404084854545420043F44402046
:10055A003C4040207C1C2040201C3C4030403C4415
:0E056A00281028440C5050503C4464544C441B
:00000001FF
