:100000000C9434000C9451000C9451000C94510049
:100010000C9451000C9451000C9451000C9451001C
:100020000C9451000C9451000C9451000C9451000C
:100030000C9451000C9451000C9451000C945100FC
:100040000C9451000C9451000C9451000C945100EC
:100050000C9451000C9451000C9451000C945100DC
:100060000C9451000C94510011241FBECFEFD8E026
:10007000DEBFCDBF11E0A0E0B1E0E6EDFAE002C0E6
:1000800005900D92A835B107D9F721E0A8E5B1E0B8
:1000900001C01D92A136B207E1F70E944C030C94F7
:1000A00069050C9400009BB19F70282F207F922B34
:1000B0009BB9589859985A9A35E03A95F1F700004B
:1000C0005A989AE69A95F1F700C02BB12F7030E15B
:1000D000839FC0011124822B8BB95A9A85E08A959F
:1000E000F1F700005A9808958FEF8AB95A988FE374
:1000F0009FE10197F1F700C0000083E30E945300E5
:100100008FE891E00197F1F700C0000082E30E94C0
:1001100053008FE891E00197F1F700C0000088E2FA
:100120000E9453008FE891E00197F1F700C00000B2
:100130008CE00E9453008FE891E00197F1F700C036
:10014000000081E00E9453008FE39FE10197F1F7E7
:1001500000C0000086E00E9453008FE891E0019704
:10016000F1F700C0000008959BB19F70282F207FF9
:10017000922B9BB9589A59985A9A35E03A95F1F7CB
:1001800000005A982BB12F7030E1839FC0011124D9
:10019000822B8BB9589A59985A9A85E08A95F1F72B
:1001A00000005A988FE891E00197F1F700C0000035
:1001B00008950F931F93CF93DF9300D000D0CDB756
:1001C000DEB70091010110910201209103013091ED
:1001D000040109831A832B833C83FE01E60FF11D82
:1001E00081509081890F0E9453008FE891E0019720
:1001F000F1F700C000000F900F900F900F90DF916B
:10020000CF911F910F9108950F931F93CF938C015E
:10021000C0E0F801EC0FF11D8081882321F00E94DD
:10022000B400CF5FF6CFCF911F910F91089581E079
:100230000E9453008FE39CE90197F1F700C0000092
:10024000089508951C9919C02FE788E391E0215083
:1002500080409040E1F700C000001C9902C01C9B48
:10026000FECF80915801811104C081E08093580134
:1002700008951092580181E0089580E0089565E6A0
:1002800070E081E00E949A03BC0180E090E00E944F
:100290006E042CEE31E540EA50E40E94D40420E0E4
:1002A00030E040E850E40E94D40420E030E040E830
:1002B0005AE30E94D40420E030E048EC52E40E946B
:1002C000D4040E943F04CB01089580E090E008959B
:1002D00061E081E00E94D90085E091E00E94040184
:1002E00061E086E00E94D9008EE20E94B40061E0E5
:1002F00080E10E94D90085E20E94B40062E081E0C2
:100300000E94D90089E091E00E94040162E08AE045
:100310000E94D9008DE091E00E94040162E08FE02C
:100320000E94D9008EE20C94B4000F931F93CF93D8
:10033000DF93C82FD62F8A010E94D900C80168EE2A
:1003400073E00E9409048C0180E3860F0E94B400D0
:10035000C80164E670E00E9409048C0180E3860F06
:100360000E94B4006D2F82E08C0F0E94D9008EE2B3
:100370000E94B400C8016AE070E00E94090480E3B2
:10038000860FDF91CF911F910F910C94B400CF9302
:1003900064E60E94FD03892F6AE00E94FD03C92FD5
:1003A000805D0E94B40080E38C0FCF910C94B40068
:1003B000CF93C82F61E08EE00E94D9008C2F90E08F
:1003C000019644E6489F9001499F300D1124832FE8
:1003D000CF910C94C701CF9329988FE39CE90197A3
:1003E000F1F700C0000080915C0190915D01892BC4
:1003F000B9F080915C0190915D0101978338934041
:10040000C0F50E94170161E081E00E94D90081E2FD
:1004100091E00E940401109200011092590129C03C
:100420000E94170161E081E00E94D90081E191E022
:100430000E94040110925901C1E08091590181117B
:10044000D8CF0E943F0190935D0180935C018FEFB4
:1004500099E628E1815090402040E1F700C000007B
:1004600080915C0190915D01892B39F3C093590112
:10047000E4CF80915C0190915D018538934018F044
:1004800081E080935901C0915901C13009F0CDC07C
:100490000E9417010E946801C0935A0161E089E03F
:1004A0000E94D90081E391E00E9404018FE38093D0
:1004B000B300299A80915A01813009F047C0109207
:1004C000600110925F0140915C0150915D0161E01B
:1004D00084E00E94950140915F015091600162E0CB
:1004E0008DE00E9495018091B3000E94D8018FEFAA
:1004F00099E628E1815090402040E1F700C00000DB
:1005000029988FE39CE90197F1F700C000000E9451
:100510003F01AC0190935D0180935C01493D94E003
:10052000590778F010925A0162E084E00E94950128
:1005300061E089E00E94D90084E391E00E94040117
:10054000B9CF62E084E00E949501B3CF81E080934F
:100550005E0161E089E00E94D90087E391E00E949A
:100560000401299A80915E01813009F05EC00E94E9
:100570003F0190935D0180935C01823E944020F4A2
:100580008091B3008F5F03C08091B300815080934E
:10059000B30040915C0150915D0161E084E00E94F4
:1005A00095018091B3000E94D8018FEF93ED20E375
:1005B000815090402040E1F700C0000029988FE36F
:1005C0009CE90197F1F700C000000E943F01909361
:1005D0005D0180935C01AC0162E084E00E949501C2
:1005E00040915F015091600143315105C8F4809101
:1005F0005C0190915D01833E944090F00E94170150
:1006000061E081E00E94D9008AE391E00E94040148
:1006100010925E0110925901109200012A9A05C0B1
:1006200062E08DE00E9495019CCFCF9108950E94D9
:10063000170162E081E00E94D90089E491E00E9404
:10064000040180915801882331F10E943F01909369
:100650005D0180935C01AC0161E084E00E94950142
:100660002FEF81EE94E0215080409040E1F700C0F0
:1006700000000E942201882321F30E9417010E949A
:1006800068012FEF81EE94E0215080409040E1F727
:1006900000C00000D6CF08951C982C9A84B18660C3
:1006A00084B985B1897F85B90E947E038FE99FE077
:1006B0000197F1F700C000008FE99FE00197F1F783
:1006C00000C000000E9474008FE39CE90197F1F7DD
:1006D00000C0000062E081E00E94D90082E591E064
:1006E0000E9404010E94220181110E94170380913F
:1006F00000018823B9F30E94EB01F4CF17B8EAE7B1
:10070000F0E08081876880830895877080937C0003
:1007100080917A00806480937A0080917A0084FFCF
:10072000FCCF85E08A95F1F70000809178009091E8
:10073000790008954F925F926F927F928F929F926D
:10074000AF92BF92CF92DF92EF92FF920F931F93DF
:10075000CF93DF93CDB7DEB7882E7B01CDB6DEB663
:10076000CB01880F991F2DB73EB7281B390B0FB649
:10077000F8943EBF0FBE2DBF8DB79EB701965C01AA
:10078000412C512C3201912C092D10E00E151F0522
:10079000B0F4882D0E948503000F111FF501E00FB2
:1007A000F11F91838083480E591E611C711C8FE9D3
:1007B0009FE00197F1F700C000009394E5CF970107
:1007C00040E050E0C301B2010E941D04C9010FB610
:1007D000F894DEBE0FBECDBEDF91CF911F910F9179
:1007E000FF90EF90DF90CF90BF90AF909F908F9051
:1007F0007F906F905F904F900895991B79E004C0AF
:10080000991F961708F0961B881F7A95C9F780954F
:100810000895AA1BBB1B51E107C0AA1FBB1FA61747
:10082000B70710F0A61BB70B881F991F5A95A9F799
:1008300080959095BC01CD010895A1E21A2EAA1BC6
:10084000BB1BFD010DC0AA1FBB1FEE1FFF1FA21780
:10085000B307E407F50720F0A21BB30BE40BF50B7D
:10086000661F771F881F991F1A9469F76095709506
:10087000809590959B01AC01BD01CF0108950E9428
:10088000B30488F09F5798F0B92F9927B751B0F06B
:10089000E1F0660F771F881F991F1AF0BA95C9F704
:1008A00014C0B13091F00E94CD04B1E008950C94D1
:1008B000CD04672F782F8827B85F39F0B93FCCF384
:1008C000869577956795B395D9F73EF49095809581
:1008D000709561957F4F8F4F9F4F0895E89409C0A1
:1008E00097FB3EF490958095709561957F4F8F4F63
:1008F0009F4F9923A9F0F92F96E9BB279395F69579
:10090000879577956795B795F111F8CFFAF4BB0FF6
:1009100011F460FF1BC06F5F7F4F8F4F9F4F16C05A
:10092000882311F096E911C0772321F09EE8872FE4
:10093000762F05C0662371F096E8862F70E060E0A0
:100940002AF09A95660F771F881FDAF7880F969519
:10095000879597F9089557FD9058440F551F59F002
:100960005F3F71F04795880F97FB991F61F09F3F9C
:1009700079F087950895121613061406551FF2CFC5
:100980004695F1DF08C0161617061806991FF1CF15
:1009900086957105610508940895E894BB2766273C
:1009A0007727CB0197F908950E94E7040C94580526
:1009B0000E944A0538F00E94510520F0952311F05D
:1009C0000C9441050C94470511240C94CE040E940C
:1009D000AB0470F3959FC1F3950F50E0551F629FD4
:1009E000F001729FBB27F00DB11D639FAA27F00D88
:1009F000B11DAA1F649F6627B00DA11D661F829FAF
:100A00002227B00DA11D621F739FB00DA11D621F93
:100A1000839FA00D611D221F749F3327A00D611DB0
:100A2000231F849F600D211D822F762F6A2F112492
:100A30009F5750409AF0F1F088234AF0EE0FFF1FC5
:100A4000BB1F661F771F881F91505040A9F79E3F1C
:100A5000510580F00C9441050C94CE045F3FE4F303
:100A6000983ED4F3869577956795B795F795E79572
:100A70009F5FC1F7FE2B880F911D9695879597F97B
:100A8000089597F99F6780E870E060E008959FEF10
:100A900080EC089500240A94161617061806090615
:100AA000089500240A9412161306140605060895E4
:100AB000092E0394000C11F4882352F0BB0F40F46C
:100AC000BF2B11F460FF04C06F5F7F4F8F4F9F4FAC
:060AD0000895F894FFCF29
:100AD6000180C094D4566F2D0056622D0049612DB9
:100AE6000020496E73657274206261747465727950
:100AF60000204661756C7479206261747465727940
:100B06000043430020200043560043686172676536
:100B160020636F6D6C6574650063616C206D6F6436
:080B2600650048656C6C6F006E
:00000001FF
